{
  "address": "0xe7f1725E7734CE288F8367e1Bb143E90bb3F0512",
  "abi": [
    {
      "inputs": [
        {
          "internalType": "address",
          "name": "s_priceFeedAddress",
          "type": "address"
        }
      ],
      "stateMutability": "nonpayable",
      "type": "constructor"
    },
    {
      "inputs": [],
      "name": "FundMe__NotOwner",
      "type": "error"
    },
    {
      "stateMutability": "payable",
      "type": "fallback"
    },
    {
      "inputs": [],
      "name": "MINIMUM_USD",
      "outputs": [
        {
          "internalType": "uint256",
          "name": "",
          "type": "uint256"
        }
      ],
      "stateMutability": "view",
      "type": "function"
    },
    {
      "inputs": [],
      "name": "cheaperWithdraw",
      "outputs": [],
      "stateMutability": "payable",
      "type": "function"
    },
    {
      "inputs": [],
      "name": "fund",
      "outputs": [],
      "stateMutability": "payable",
      "type": "function"
    },
    {
      "inputs": [
        {
          "internalType": "uint256",
          "name": "index",
          "type": "uint256"
        }
      ],
      "name": "getFunder",
      "outputs": [
        {
          "internalType": "address",
          "name": "",
          "type": "address"
        }
      ],
      "stateMutability": "view",
      "type": "function"
    },
    {
      "inputs": [],
      "name": "getOwner",
      "outputs": [
        {
          "internalType": "address",
          "name": "",
          "type": "address"
        }
      ],
      "stateMutability": "view",
      "type": "function"
    },
    {
      "inputs": [],
      "name": "getPriceFeed",
      "outputs": [
        {
          "internalType": "contract AggregatorV3Interface",
          "name": "",
          "type": "address"
        }
      ],
      "stateMutability": "view",
      "type": "function"
    },
    {
      "inputs": [
        {
          "internalType": "address",
          "name": "funderAddress",
          "type": "address"
        }
      ],
      "name": "getsAddressToAmountFunded",
      "outputs": [
        {
          "internalType": "uint256",
          "name": "",
          "type": "uint256"
        }
      ],
      "stateMutability": "view",
      "type": "function"
    },
    {
      "inputs": [],
      "name": "withdraw",
      "outputs": [],
      "stateMutability": "payable",
      "type": "function"
    },
    {
      "stateMutability": "payable",
      "type": "receive"
    }
  ],
  "transactionHash": "0x328464599d2afce2d9891a89859cc8dcbdcffa6adfcd7a9e2b481703474c0dd2",
  "args": [
    "0x5FbDB2315678afecb367f032d93F642f64180aa3"
  ],
  "numDeployments": 1,
  "solcInputHash": "daff9c3946091a0c2d38ca813fbc7838",
  "bytecode": "0x60a060405234801561001057600080fd5b50604051610e30380380610e3083398181016040528101906100329190610110565b3373ffffffffffffffffffffffffffffffffffffffff1660808173ffffffffffffffffffffffffffffffffffffffff168152505080600260006101000a81548173ffffffffffffffffffffffffffffffffffffffff021916908373ffffffffffffffffffffffffffffffffffffffff1602179055505061013d565b600080fd5b600073ffffffffffffffffffffffffffffffffffffffff82169050919050565b60006100dd826100b2565b9050919050565b6100ed816100d2565b81146100f857600080fd5b50565b60008151905061010a816100e4565b92915050565b600060208284031215610126576101256100ad565b5b6000610134848285016100fb565b91505092915050565b608051610cca610166600039600081816102b50152818161050401526105540152610cca6000f3fe60806040526004361061007f5760003560e01c80639e87a5cd1161004e5780639e87a5cd14610135578063b60d428814610160578063be2693f01461016a578063d7b4750c146101745761008e565b80631e37bcca146100985780633ccfd60b146100d55780636b69a592146100df578063893d20e81461010a5761008e565b3661008e5761008c6101b1565b005b6100966101b1565b005b3480156100a457600080fd5b506100bf60048036038101906100ba9190610948565b61026b565b6040516100cc919061098e565b60405180910390f35b6100dd6102b3565b005b3480156100eb57600080fd5b506100f46104f3565b604051610101919061098e565b60405180910390f35b34801561011657600080fd5b5061011f610500565b60405161012c91906109b8565b60405180910390f35b34801561014157600080fd5b5061014a610528565b6040516101579190610a32565b60405180910390f35b6101686101b1565b005b610172610552565b005b34801561018057600080fd5b5061019b60048036038101906101969190610a79565b6107f6565b6040516101a891906109b8565b60405180910390f35b346000803373ffffffffffffffffffffffffffffffffffffffff1673ffffffffffffffffffffffffffffffffffffffff16815260200190815260200160002060008282546101ff9190610ad5565b925050819055506001339080600181540180825580915050600190039060005260206000200160009091909190916101000a81548173ffffffffffffffffffffffffffffffffffffffff021916908373ffffffffffffffffffffffffffffffffffffffff160217905550565b60008060008373ffffffffffffffffffffffffffffffffffffffff1673ffffffffffffffffffffffffffffffffffffffff168152602001908152602001600020549050919050565b7f000000000000000000000000000000000000000000000000000000000000000073ffffffffffffffffffffffffffffffffffffffff163373ffffffffffffffffffffffffffffffffffffffff1614610338576040517f579610db00000000000000000000000000000000000000000000000000000000815260040160405180910390fd5b60005b6001805490508110156103e35760006001828154811061035e5761035d610b2b565b5b9060005260206000200160009054906101000a900473ffffffffffffffffffffffffffffffffffffffff16905060008060008373ffffffffffffffffffffffffffffffffffffffff1673ffffffffffffffffffffffffffffffffffffffff168152602001908152602001600020819055505080806103db90610b5a565b91505061033b565b50600067ffffffffffffffff8111156103ff576103fe610ba2565b5b60405190808252806020026020018201604052801561042d5781602001602082028036833780820191505090505b506001908051906020019061044392919061083e565b5060003373ffffffffffffffffffffffffffffffffffffffff164760405161046a90610c02565b60006040518083038185875af1925050503d80600081146104a7576040519150601f19603f3d011682016040523d82523d6000602084013e6104ac565b606091505b50509050806104f0576040517f08c379a00000000000000000000000000000000000000000000000000000000081526004016104e790610c74565b60405180910390fd5b50565b6802b5e3af16b188000081565b60007f0000000000000000000000000000000000000000000000000000000000000000905090565b6000600260009054906101000a900473ffffffffffffffffffffffffffffffffffffffff16905090565b7f000000000000000000000000000000000000000000000000000000000000000073ffffffffffffffffffffffffffffffffffffffff163373ffffffffffffffffffffffffffffffffffffffff16146105d7576040517f579610db00000000000000000000000000000000000000000000000000000000815260040160405180910390fd5b6000600180548060200260200160405190810160405280929190818152602001828054801561065b57602002820191906000526020600020905b8160009054906101000a900473ffffffffffffffffffffffffffffffffffffffff1673ffffffffffffffffffffffffffffffffffffffff1681526020019060010190808311610611575b5050505050905060005b81518110156106e557600082828151811061068357610682610b2b565b5b6020026020010151905060008060008373ffffffffffffffffffffffffffffffffffffffff1673ffffffffffffffffffffffffffffffffffffffff168152602001908152602001600020819055505080806106dd90610b5a565b915050610665565b50600067ffffffffffffffff81111561070157610700610ba2565b5b60405190808252806020026020018201604052801561072f5781602001602082028036833780820191505090505b506001908051906020019061074592919061083e565b5060003373ffffffffffffffffffffffffffffffffffffffff164760405161076c90610c02565b60006040518083038185875af1925050503d80600081146107a9576040519150601f19603f3d011682016040523d82523d6000602084013e6107ae565b606091505b50509050806107f2576040517f08c379a00000000000000000000000000000000000000000000000000000000081526004016107e990610c74565b60405180910390fd5b5050565b60006001828154811061080c5761080b610b2b565b5b9060005260206000200160009054906101000a900473ffffffffffffffffffffffffffffffffffffffff169050919050565b8280548282559060005260206000209081019282156108b7579160200282015b828111156108b65782518260006101000a81548173ffffffffffffffffffffffffffffffffffffffff021916908373ffffffffffffffffffffffffffffffffffffffff1602179055509160200191906001019061085e565b5b5090506108c491906108c8565b5090565b5b808211156108e15760008160009055506001016108c9565b5090565b600080fd5b600073ffffffffffffffffffffffffffffffffffffffff82169050919050565b6000610915826108ea565b9050919050565b6109258161090a565b811461093057600080fd5b50565b6000813590506109428161091c565b92915050565b60006020828403121561095e5761095d6108e5565b5b600061096c84828501610933565b91505092915050565b6000819050919050565b61098881610975565b82525050565b60006020820190506109a3600083018461097f565b92915050565b6109b28161090a565b82525050565b60006020820190506109cd60008301846109a9565b92915050565b6000819050919050565b60006109f86109f36109ee846108ea565b6109d3565b6108ea565b9050919050565b6000610a0a826109dd565b9050919050565b6000610a1c826109ff565b9050919050565b610a2c81610a11565b82525050565b6000602082019050610a476000830184610a23565b92915050565b610a5681610975565b8114610a6157600080fd5b50565b600081359050610a7381610a4d565b92915050565b600060208284031215610a8f57610a8e6108e5565b5b6000610a9d84828501610a64565b91505092915050565b7f4e487b7100000000000000000000000000000000000000000000000000000000600052601160045260246000fd5b6000610ae082610975565b9150610aeb83610975565b9250827fffffffffffffffffffffffffffffffffffffffffffffffffffffffffffffffff03821115610b2057610b1f610aa6565b5b828201905092915050565b7f4e487b7100000000000000000000000000000000000000000000000000000000600052603260045260246000fd5b6000610b6582610975565b91507fffffffffffffffffffffffffffffffffffffffffffffffffffffffffffffffff8203610b9757610b96610aa6565b5b600182019050919050565b7f4e487b7100000000000000000000000000000000000000000000000000000000600052604160045260246000fd5b600081905092915050565b50565b6000610bec600083610bd1565b9150610bf782610bdc565b600082019050919050565b6000610c0d82610bdf565b9150819050919050565b600082825260208201905092915050565b7f43616c6c206661696c6564000000000000000000000000000000000000000000600082015250565b6000610c5e600b83610c17565b9150610c6982610c28565b602082019050919050565b60006020820190508181036000830152610c8d81610c51565b905091905056fea2646970667358221220ad48994a391a3269cbb03015f895ae3f746d439e74e78ae95ea7bc8aec630eec64736f6c634300080e0033",
  "devdoc": {
    "author": "Arani",
    "kind": "dev",
    "methods": {},
    "title": "A contract for crowd funding",
    "version": 1
  },
  "userdoc": {
    "kind": "user",
    "methods": {},
    "notice": "This contract is from the youtube tutorial",
    "version": 1
  },
  "storageLayout": {
    "storage": [
      {
        "astId": 60,
        "contract": "contracts/FundMe.sol:FundMe",
        "label": "s_addressToAmountFunded",
        "offset": 0,
        "slot": "0",
        "type": "t_mapping(t_address,t_uint256)"
      },
      {
        "astId": 63,
        "contract": "contracts/FundMe.sol:FundMe",
        "label": "s_funders",
        "offset": 0,
        "slot": "1",
        "type": "t_array(t_address)dyn_storage"
      },
      {
        "astId": 75,
        "contract": "contracts/FundMe.sol:FundMe",
        "label": "s_priceFeed",
        "offset": 0,
        "slot": "2",
        "type": "t_contract(AggregatorV3Interface)45"
      }
    ],
    "types": {
      "t_address": {
        "encoding": "inplace",
        "label": "address",
        "numberOfBytes": "20"
      },
      "t_array(t_address)dyn_storage": {
        "base": "t_address",
        "encoding": "dynamic_array",
        "label": "address[]",
        "numberOfBytes": "32"
      },
      "t_contract(AggregatorV3Interface)45": {
        "encoding": "inplace",
        "label": "contract AggregatorV3Interface",
        "numberOfBytes": "20"
      },
      "t_mapping(t_address,t_uint256)": {
        "encoding": "mapping",
        "key": "t_address",
        "label": "mapping(address => uint256)",
        "numberOfBytes": "32",
        "value": "t_uint256"
      },
      "t_uint256": {
        "encoding": "inplace",
        "label": "uint256",
        "numberOfBytes": "32"
      }
    }
  }
}